{
  "transactions": [
    {
      "hash": "0x509a86a77ba6494c757ddc4d76395f9208658fe05c56c41786bbfbd11e2ecf3d",
      "transactionType": "CALL",
      "contractName": null,
      "contractAddress": "0x6e887d54a2cd242cf0abcf16679ec1becf2d8c16",
      "function": "setCardMetadata(uint256,string,string,uint256,uint8,bytes,uint256)",
      "arguments": [
        "1",
        "Ethereum",
        "The world computer that started it all",
        "3",
        "0",
        "0x3c73766720786d6c6e733d22687474703a2f2f7777772e77332e6f72672f323030302f737667222077696474683d2231303022206865696768743d22313030223e3c726563742077696474683d2231303022206865696768743d22313030222066696c6c3d22626c7565222f3e3c7465787420783d2235302220793d2235302220746578742d616e63686f723d226d6964646c65222066696c6c3d227768697465223e544553543c2f746578743e3c2f7376673e",
        "0"
      ],
      "transaction": {
        "from": "0xbadad51de865b9d880b184f3cba6f7240e284506",
        "to": "0x6e887d54a2cd242cf0abcf16679ec1becf2d8c16",
        "gas": "0x6d182",
        "value": "0x0",
        "input": "0x7ff8fdbc000000000000000000000000000000000000000000000000000000000000000100000000000000000000000000000000000000000000000000000000000000e0000000000000000000000000000000000000000000000000000000000000012000000000000000000000000000000000000000000000000000000000000000030000000000000000000000000000000000000000000000000000000000000000000000000000000000000000000000000000000000000000000000000000018000000000000000000000000000000000000000000000000000000000000000000000000000000000000000000000000000000000000000000000000000000008457468657265756d000000000000000000000000000000000000000000000000000000000000000000000000000000000000000000000000000000000000002654686520776f726c6420636f6d70757465722074686174207374617274656420697420616c6c000000000000000000000000000000000000000000000000000000000000000000000000000000000000000000000000000000000000000000b43c73766720786d6c6e733d22687474703a2f2f7777772e77332e6f72672f323030302f737667222077696474683d2231303022206865696768743d22313030223e3c726563742077696474683d2231303022206865696768743d22313030222066696c6c3d22626c7565222f3e3c7465787420783d2235302220793d2235302220746578742d616e63686f723d226d6964646c65222066696c6c3d227768697465223e544553543c2f746578743e3c2f7376673e000000000000000000000000",
        "nonce": "0xf",
        "chainId": "0x14a34"
      },
      "additionalContracts": [
        {
          "transactionType": "CREATE",
          "address": "0x2c765563e0227682abf61d64c880dd650e847e83",
          "initCode": "0x003c73766720786d6c6e733d22687474703a2f2f7777772e77332e6f72672f323030302f737667222077696474683d2231303022206865696768743d22313030223e3c726563742077696474683d2231303022206865696768743d22313030222066696c6c3d22626c7565222f3e3c7465787420783d2235302220793d2235302220746578742d616e63686f723d226d6964646c65222066696c6c3d227768697465223e544553543c2f746578743e3c2f7376673e"
        },
        {
          "transactionType": "CREATE",
          "address": "0x4f3a5f9b9819ced495958b0b72a7809c040c6c79",
          "initCode": "0x007b226e616d65223a22457468657265756d222c226465736372697074696f6e223a2254686520776f726c6420636f6d70757465722074686174207374617274656420697420616c6c222c22636f7374223a332c226361726454797065223a22436861696e227d"
        }
      ],
      "isFixedGasLimit": false
    },
    {
      "hash": "0x326ba9a896df1b79b29ccad46652962596269c626c5cb896d670f7fd306a0921",
      "transactionType": "CALL",
      "contractName": null,
      "contractAddress": "0x6e887d54a2cd242cf0abcf16679ec1becf2d8c16",
      "function": "setCardAbilities(uint256,(string,uint256)[])",
      "arguments": [
        "1",
        "[(income, 1)]"
      ],
      "transaction": {
        "from": "0xbadad51de865b9d880b184f3cba6f7240e284506",
        "to": "0x6e887d54a2cd242cf0abcf16679ec1becf2d8c16",
        "gas": "0x221e3",
        "value": "0x0",
        "input": "0x2231c8df0000000000000000000000000000000000000000000000000000000000000001000000000000000000000000000000000000000000000000000000000000004000000000000000000000000000000000000000000000000000000000000000010000000000000000000000000000000000000000000000000000000000000020000000000000000000000000000000000000000000000000000000000000004000000000000000000000000000000000000000000000000000000000000000010000000000000000000000000000000000000000000000000000000000000006696e636f6d650000000000000000000000000000000000000000000000000000",
        "nonce": "0x10",
        "chainId": "0x14a34"
      },
      "additionalContracts": [],
      "isFixedGasLimit": false
    },
    {
      "hash": "0x3b5fd3f1c26396cd99ac1a8325c4458197b6a48dd6030d5db02cfd5bb8e95128",
      "transactionType": "CALL",
      "contractName": null,
      "contractAddress": "0x6e887d54a2cd242cf0abcf16679ec1becf2d8c16",
      "function": "setCardMetadata(uint256,string,string,uint256,uint8,bytes,uint256)",
      "arguments": [
        "2",
        "Bitcoin",
        "Digital gold, the original cryptocurrency",
        "5",
        "0",
        "0x3c73766720786d6c6e733d22687474703a2f2f7777772e77332e6f72672f323030302f737667222077696474683d2231303022206865696768743d22313030223e3c726563742077696474683d2231303022206865696768743d22313030222066696c6c3d22626c7565222f3e3c7465787420783d2235302220793d2235302220746578742d616e63686f723d226d6964646c65222066696c6c3d227768697465223e544553543c2f746578743e3c2f7376673e",
        "0"
      ],
      "transaction": {
        "from": "0xbadad51de865b9d880b184f3cba6f7240e284506",
        "to": "0x6e887d54a2cd242cf0abcf16679ec1becf2d8c16",
        "gas": "0x6d1a5",
        "value": "0x0",
        "input": "0x7ff8fdbc000000000000000000000000000000000000000000000000000000000000000200000000000000000000000000000000000000000000000000000000000000e0000000000000000000000000000000000000000000000000000000000000012000000000000000000000000000000000000000000000000000000000000000050000000000000000000000000000000000000000000000000000000000000000000000000000000000000000000000000000000000000000000000000000018000000000000000000000000000000000000000000000000000000000000000000000000000000000000000000000000000000000000000000000000000000007426974636f696e0000000000000000000000000000000000000000000000000000000000000000000000000000000000000000000000000000000000000000294469676974616c20676f6c642c20746865206f726967696e616c2063727970746f63757272656e6379000000000000000000000000000000000000000000000000000000000000000000000000000000000000000000000000000000000000b43c73766720786d6c6e733d22687474703a2f2f7777772e77332e6f72672f323030302f737667222077696474683d2231303022206865696768743d22313030223e3c726563742077696474683d2231303022206865696768743d22313030222066696c6c3d22626c7565222f3e3c7465787420783d2235302220793d2235302220746578742d616e63686f723d226d6964646c65222066696c6c3d227768697465223e544553543c2f746578743e3c2f7376673e000000000000000000000000",
        "nonce": "0x11",
        "chainId": "0x14a34"
      },
      "additionalContracts": [
        {
          "transactionType": "CREATE",
          "address": "0x1aefbd07989d82b871ae5dd3d56a68360d7c1e9f",
          "initCode": "0x003c73766720786d6c6e733d22687474703a2f2f7777772e77332e6f72672f323030302f737667222077696474683d2231303022206865696768743d22313030223e3c726563742077696474683d2231303022206865696768743d22313030222066696c6c3d22626c7565222f3e3c7465787420783d2235302220793d2235302220746578742d616e63686f723d226d6964646c65222066696c6c3d227768697465223e544553543c2f746578743e3c2f7376673e"
        },
        {
          "transactionType": "CREATE",
          "address": "0xf3b3b1b05e32b0281976245b51d872fe9080a853",
          "initCode": "0x007b226e616d65223a22426974636f696e222c226465736372697074696f6e223a224469676974616c20676f6c642c20746865206f726967696e616c2063727970746f63757272656e6379222c22636f7374223a352c226361726454797065223a22436861696e227d"
        }
      ],
      "isFixedGasLimit": false
    },
    {
      "hash": "0x6eb6be0720d1fbf1fc037ac4755e04f946eec2f2ebf1f3d2b9cff5b4f1688423",
      "transactionType": "CALL",
      "contractName": null,
      "contractAddress": "0x6e887d54a2cd242cf0abcf16679ec1becf2d8c16",
      "function": "setCardAbilities(uint256,(string,uint256)[])",
      "arguments": [
        "2",
        "[(income, 2)]"
      ],
      "transaction": {
        "from": "0xbadad51de865b9d880b184f3cba6f7240e284506",
        "to": "0x6e887d54a2cd242cf0abcf16679ec1becf2d8c16",
        "gas": "0x221e3",
        "value": "0x0",
        "input": "0x2231c8df0000000000000000000000000000000000000000000000000000000000000002000000000000000000000000000000000000000000000000000000000000004000000000000000000000000000000000000000000000000000000000000000010000000000000000000000000000000000000000000000000000000000000020000000000000000000000000000000000000000000000000000000000000004000000000000000000000000000000000000000000000000000000000000000020000000000000000000000000000000000000000000000000000000000000006696e636f6d650000000000000000000000000000000000000000000000000000",
        "nonce": "0x12",
        "chainId": "0x14a34"
      },
      "additionalContracts": [],
      "isFixedGasLimit": false
    }
  ],
  "receipts": [
    {
      "status": "0x1",
      "cumulativeGasUsed": "0x6b37cd",
      "logs": [
        {
          "address": "0x6e887d54a2cd242cf0abcf16679ec1becf2d8c16",
          "topics": [
            "0x793d9144d0a74850a86b31a151285a9171750d9ad467b9718211ca744c76a2d1",
            "0x0000000000000000000000000000000000000000000000000000000000000001"
          ],
          "data": "0x00000000000000000000000000000000000000000000000000000000000000200000000000000000000000000000000000000000000000000000000000000008457468657265756d000000000000000000000000000000000000000000000000",
          "blockHash": "0xa8c9258752050f17e61fc9507708c60985a370d00f674989c7408e9c31b27ccd",
          "blockNumber": "0x1cdf732",
          "blockTimestamp": "0x68af4d44",
          "transactionHash": "0x509a86a77ba6494c757ddc4d76395f9208658fe05c56c41786bbfbd11e2ecf3d",
          "transactionIndex": "0x19",
          "logIndex": "0xc5",
          "removed": false
        }
      ],
      "logsBloom": "0x00000000000000000000000000000000000000000000000000000000000080000000000000000000000000000000000000000000000000000000000000040000000000000000000000000000000000000000000000048000000000000000000000000000000000000000000000000000000000000000000000000000000000000000000000000000000000000000000000000000000000000000000000000000000000000000100000000000000000000000000000000000000000000000000000000000000000000000000800000000000000000000000000000000000040100000000000000000000000000000000008000000000000000000000000000000",
      "type": "0x2",
      "transactionHash": "0x509a86a77ba6494c757ddc4d76395f9208658fe05c56c41786bbfbd11e2ecf3d",
      "transactionIndex": "0x19",
      "blockHash": "0xa8c9258752050f17e61fc9507708c60985a370d00f674989c7408e9c31b27ccd",
      "blockNumber": "0x1cdf732",
      "gasUsed": "0x4a983",
      "effectiveGasPrice": "0xf4296",
      "from": "0xbadad51de865b9d880b184f3cba6f7240e284506",
      "to": "0x6e887d54a2cd242cf0abcf16679ec1becf2d8c16",
      "contractAddress": null,
      "l1BaseFeeScalar": "0x44d",
      "l1BlobBaseFee": "0x145",
      "l1BlobBaseFeeScalar": "0xa118b",
      "l1Fee": "0x247c340",
      "l1GasPrice": "0x7a0cac",
      "l1GasUsed": "0x10f1"
    },
    {
      "status": "0x1",
      "cumulativeGasUsed": "0x6cad0f",
      "logs": [],
      "logsBloom": "0x00000000000000000000000000000000000000000000000000000000000000000000000000000000000000000000000000000000000000000000000000000000000000000000000000000000000000000000000000000000000000000000000000000000000000000000000000000000000000000000000000000000000000000000000000000000000000000000000000000000000000000000000000000000000000000000000000000000000000000000000000000000000000000000000000000000000000000000000000000000000000000000000000000000000000000000000000000000000000000000000000000000000000000000000000000000",
      "type": "0x2",
      "transactionHash": "0x326ba9a896df1b79b29ccad46652962596269c626c5cb896d670f7fd306a0921",
      "transactionIndex": "0x1a",
      "blockHash": "0xa8c9258752050f17e61fc9507708c60985a370d00f674989c7408e9c31b27ccd",
      "blockNumber": "0x1cdf732",
      "gasUsed": "0x17542",
      "effectiveGasPrice": "0xf4296",
      "from": "0xbadad51de865b9d880b184f3cba6f7240e284506",
      "to": "0x6e887d54a2cd242cf0abcf16679ec1becf2d8c16",
      "contractAddress": null,
      "l1BaseFeeScalar": "0x44d",
      "l1BlobBaseFee": "0x145",
      "l1BlobBaseFeeScalar": "0xa118b",
      "l1Fee": "0xd75462",
      "l1GasPrice": "0x7a0cac",
      "l1GasUsed": "0x640"
    },
    {
      "status": "0x1",
      "cumulativeGasUsed": "0x7156aa",
      "logs": [
        {
          "address": "0x6e887d54a2cd242cf0abcf16679ec1becf2d8c16",
          "topics": [
            "0x793d9144d0a74850a86b31a151285a9171750d9ad467b9718211ca744c76a2d1",
            "0x0000000000000000000000000000000000000000000000000000000000000002"
          ],
          "data": "0x00000000000000000000000000000000000000000000000000000000000000200000000000000000000000000000000000000000000000000000000000000007426974636f696e00000000000000000000000000000000000000000000000000",
          "blockHash": "0xa8c9258752050f17e61fc9507708c60985a370d00f674989c7408e9c31b27ccd",
          "blockNumber": "0x1cdf732",
          "blockTimestamp": "0x68af4d44",
          "transactionHash": "0x3b5fd3f1c26396cd99ac1a8325c4458197b6a48dd6030d5db02cfd5bb8e95128",
          "transactionIndex": "0x1b",
          "logIndex": "0xc6",
          "removed": false
        }
      ],
      "logsBloom": "0x04000000000000000000000000000000000000000000000000000000000080000000000000000000000000000000000000000000000000000000000000000000000000000000000000000000000000000000000000008000000000000000000000000000000000000000000000000000000000000000000000000000000000000000000000000000000000000000000000000000000000000000000000000000000000000000100000000100000000000000000000000000000000000000000000000000000000000000000800000000000000000000000000000000000000100000000000000000000000000000000008000000008000000000000000000000",
      "type": "0x2",
      "transactionHash": "0x3b5fd3f1c26396cd99ac1a8325c4458197b6a48dd6030d5db02cfd5bb8e95128",
      "transactionIndex": "0x1b",
      "blockHash": "0xa8c9258752050f17e61fc9507708c60985a370d00f674989c7408e9c31b27ccd",
      "blockNumber": "0x1cdf732",
      "gasUsed": "0x4a99b",
      "effectiveGasPrice": "0xf4296",
      "from": "0xbadad51de865b9d880b184f3cba6f7240e284506",
      "to": "0x6e887d54a2cd242cf0abcf16679ec1becf2d8c16",
      "contractAddress": null,
      "l1BaseFeeScalar": "0x44d",
      "l1BlobBaseFee": "0x145",
      "l1BlobBaseFeeScalar": "0xa118b",
      "l1Fee": "0x24b5d7b",
      "l1GasPrice": "0x7a0cac",
      "l1GasUsed": "0x110c"
    },
    {
      "status": "0x1",
      "cumulativeGasUsed": "0x72cbec",
      "logs": [],
      "logsBloom": "0x00000000000000000000000000000000000000000000000000000000000000000000000000000000000000000000000000000000000000000000000000000000000000000000000000000000000000000000000000000000000000000000000000000000000000000000000000000000000000000000000000000000000000000000000000000000000000000000000000000000000000000000000000000000000000000000000000000000000000000000000000000000000000000000000000000000000000000000000000000000000000000000000000000000000000000000000000000000000000000000000000000000000000000000000000000000",
      "type": "0x2",
      "transactionHash": "0x6eb6be0720d1fbf1fc037ac4755e04f946eec2f2ebf1f3d2b9cff5b4f1688423",
      "transactionIndex": "0x1c",
      "blockHash": "0xa8c9258752050f17e61fc9507708c60985a370d00f674989c7408e9c31b27ccd",
      "blockNumber": "0x1cdf732",
      "gasUsed": "0x17542",
      "effectiveGasPrice": "0xf4296",
      "from": "0xbadad51de865b9d880b184f3cba6f7240e284506",
      "to": "0x6e887d54a2cd242cf0abcf16679ec1becf2d8c16",
      "contractAddress": null,
      "l1BaseFeeScalar": "0x44d",
      "l1BlobBaseFee": "0x145",
      "l1BlobBaseFeeScalar": "0xa118b",
      "l1Fee": "0xd84fb2",
      "l1GasPrice": "0x7a0cac",
      "l1GasUsed": "0x647"
    }
  ],
  "libraries": [],
  "pending": [],
  "returns": {},
  "timestamp": 1756319045451,
  "chain": 84532,
  "commit": "5eb2ca4"
}